:04000000D3EF0BF03F
:10123600C58AC58812009EA6FED79E961200C58650
:101246001EEC09F01200C5821EEC09F01200C580E2
:101256001EEC09F01200C5841EEC09F012009EA6D1
:10126600FED79E961200C58032EC09F01200C584A6
:1012760032EC09F01200C58632EC09F012003EECA1
:1012860009F0C9501200C58232EC09F0120022ECB6
:1012960009F01BEC09F0C9501200356E35C0C9FFC4
:1012A6001EEC09F01200356E35C0C9FF32EC09F0AC
:1012B6001200356E9EA8FED735C0ADFF12000F0E88
:1012C600C16E1E0E936EF19E8150E009816E120072
:1012D60094869488280EC66E310EC86EC79CC78E3B
:1012E6009E96A1961200446E000E356E4350C0ECD9
:1012F60009F0010E356E4450C0EC09F0120062ECA4
:1013060009F0FEEC09F06BEC09F09EEC09F02DEC0F
:101316000BF06CEC0AF01200376E2AEC09F0D00ED6
:1013260050EC09F0375050EC09F0365050EC09F00B
:101336002EEC09F01200C08EC08AC098C096C090EC
:10134600C082C094C292C19AC198000EC46E000EAB
:10135600C36EC28012003DC035F03EC036F0376A1B
:101366008E0E386E000E396E20EC0DF035C03DF055
:1013760036C03EF037C03FF01200366E35A002D0C0
:10138600828201D0829236C083FF82848294958EB7
:10139600828082928284829483BEFCD78290959EBC
:1013A6001200366E2AEC09F0D00E50EC09F03650D9
:1013B60050EC09F026EC09F0D10E50EC09F04AEC9D
:1013C60009F0376E2EEC09F037501200366E36EC07
:1013D60009F0A00E56EC09F0365056EC09F046EC32
:1013E60009F0A10E56EC09F042EC09F0376E3AEC22
:1013F60009F037501200000E956E9450F80B946E5B
:101406008290000E356E380EC0EC09F0000E356E77
:101416000C0EC0EC09F0000E356E010EC0EC09F0A2
:101426001200396E36EC09F0A00E56EC09F0395070
:1014360056EC09F0365056EC09F03AEC09F00B0E72
:10144600386EB80E376E3706D8A038063728FBE157
:101456003828D8B41200F7D73B6E3BC037F0D89087
:101466003736D8903736C250C30B3710C26EC28299
:10147600C2B2FED7C350C4CF37F0386A37C038F08F
:10148600376A3710396E38503A6E39C035F03AC07F
:1014960036F01200356E3504D8A413D0A2EC0CF049
:1014A6002A6E2A28D8B407D05F50D8B404D0000ECC
:1014B6005F6E2A5012002A28D8A409D0010E5F6E4A
:1014C60006D03550D8A403D0A2EC0CF01200FF0EC3
:1014D6001200948E949CAC9EAC9CAC8AAC98AC9654
:1014E600AC84AC92AC90AB8EAB9CAB9AAB88AB9613
:1014F600AB94AB92AB90B89EB88CB898B896B892AD
:10150600B890810EAF6E9D889E989D8A9E9A120015
:1015160002D0352A362A3650D96EDA6ADF50376E4F
:101526003550D96EDA6ADF50386E3750385C396E0E
:101536003950D8A406D03550D96EDA6ADF50D8A40F
:10154600E8D73950356E366A35BE3606120082EC5B
:1015560009F022502310D8A403D045EC0FF0F9D798
:1015660022042310D8A403D086EC13F0F2D7020E7F
:1015760022182310D8A403D0B4EC0EF0EAD7030E39
:1015860022182310D8A4E5D7EBEC0AF0E2D737509F
:101596003810D8B418D0010E396E04D0D89037362A
:1015A6003836392A38AEFAD73750355C385036587F
:1015B600D8A004D03750355E3850365AD8903832D5
:1015C6003732392EF1D735C035F036C036F0120035
:1015D6000FD008EC12F01200DDEC0FF0120003EC55
:1015E6000CF0120013EC15F01200B2EC10F0120021
:1015F6003450000AD8B4EDD7010AD8B4EDD7030A9F
:10160600D8B4EDD7010AD8B4EDD7070AD8A412008A
:10161600ECD7AD2FDC2EBB2F422FED2EA82E31316D
:1016260031310000127A0000350C0000350C000044
:10163600350C00400D030001004F4E004752004795
:101646004E004731004732004733004734004320FD
:1016560000000000000ED4EC09F0386E3850800906
:10166600366E000E8FEC09F0020ED4EC09F0386EDF
:1016760038504009366E020E8FEC09F0930E366E26
:10168600070E8FEC09F0000ED4EC09F0386E3850D6
:101696007F0B366E000E8FEC09F01200000E3A6ECC
:1016A600000E396E37503810D8B41CD0010E3B6E80
:1016B60004D0D890373638363B2A38AEFAD7D89089
:1016C60039363A363750355C38503658D8A005D0BA
:1016D6003750355E3850365A3980D89038323732DE
:1016E6003B2EEDD739C035F03AC036F0120014D093
:1016F60036C0F6FF37C0F7FFF86A050EF76403D069
:101706000800F55005D0F6CFE9FFF7CFEAFFEF5016
:101716005CEC09F0364A372A36C0F6FF37C0F7FFC9
:10172600F86A050EF76403D00800F55005D0F6CF29
:10173600E9FFF7CFEAFFEF500009D8B41200D8D777
:10174600000E356E3950C0EC09F016D0010E356E1C
:1017560037C0F6FF38C0F7FFF86A050EF76403D006
:101766000800F55005D0F6CFE9FFF7CFEAFFEF50B6
:10177600C0EC09F0374A382A37C0F6FF38C0F7FF01
:10178600F86A050EF76403D00800F55005D0F6CFC9
:10179600E9FFF7CFEAFFEF500009D8B41200D6D719
:1017A600180EF66E160EF76E000EF86E00EEA7F027
:1017B60010EE42F00900F5CFEEFFE550E150FAE1F8
:1017C600000EF66E300EF76E000EF86E0900F5CFBD
:1017D6005FF001EE00F0AA0EEE6AE806FDE100EE0B
:1017E60060F0470EEE6AE806FDE100EE01F0340E09
:1017F600EE6AE806FDE1000EF86E0001AAEF0AF0B7
:10180600000E256E010E246EC90E376E2F0E386E31
:10181600800E396EA3EC0BF0E40E376E2F0E386E89
:10182600C00E396EA3EC0BF0000E326EFF0E0001F7
:10183600B827FF0EB923FF0EBA23FF0EBB23B82924
:10184600F5E1B929F3E1BA29F1E1BB29D8A4EED72C
:10185600000E356E010EC0EC09F0000E236E020E6E
:10186600226E1200020ED4EC09F0096E010ED4ECC1
:1018760009F00A6E000ED4EC09F00B6E09AC04D028
:1018860009380F0B010B03D009380F0B030B300F70
:1018960000019E6F09500F0B300F9F6F3A0EA06F1D
:1018A6000A380F0B0F0B300FA16F0A500F0B300FBA
:1018B600A26F3A0EA36F0B380F0B0F0B300FA46FEE
:1018C6000B500F0B300FA56F000EA66F1200000E07
:1018D600426E3EAE06D03D6C3E1ED8B03E2A010E8C
:1018E600426E40AE04D03F6C401ED8B0402A3F50F6
:1018F6004010D8B418D0010E416E04D0D8903F36AF
:101906004036412A40AEFAD73F503D5C40503E58E3
:10191600D8A004D03F503D5E40503E5AD890403249
:101926003F32412EF1D74250D8B404D03D6C3E1E12
:10193600D8B03E2A3DC03DF03EC03EF01200819A2E
:10194600818C818E81B202D0010E120081B402D048
:10195600040E120081B602D0070E120081B802D022
:101966000A0E1200818A819C818E81B202D0020EFB
:10197600120081B402D0050E120081B602D0080E04
:10198600120081B802D00B0E1200818A818C819ED2
:10199600819E81B202D0030E120081B402D0060EDF
:1019A600120081B602D0090E120081B802D00C0EC8
:1019B6001200FF0E1200000E3A6E38AE06D0376CDB
:1019C600381ED8B0382A010E3A6E36AE06D0356CBF
:1019D600361ED8B0362A010E3A1A000E3C6E000E9C
:1019E6003B6E37503810D8B41CD0010E396E04D077
:1019F600D89037363836392A38AEFAD7D8903B36AB
:101A06003C363750355C38503658D8A005D037505C
:101A1600355E3850365A3B80D89038323732392EB8
:101A2600EDD73A50D8B404D03B6C3C1ED8B03C2A13
:101A36003BC035F03CC036F012003850D8B405D063
:101A4600355036103710D8A40CD0000E356E000E67
:101A5600366E000E376E1200382AD890373236327C
:101A66003532000E35143A6E000E36143B6EFE0EFD
:101A760037143C6E3A503B103C10D8B40CD0ECD71F
:101A8600382A010E3526000E3622000E3722D8904F
:101A9600373236323532000E35143A6E000E3614B1
:101AA6003B6EFF0E37143C6E3A503B103C10D8B4D8
:101AB60006D0E6D73806D89035363636373636BEAF
:101AC60003D0020E3860F6D738A0369ED89038324A
:101AD600385037123950D8A4378E35C035F036C055
:101AE60036F037C037F012009EC071F09FC072F01A
:101AF600A1C073F0A2C074F0A4C075F0A5C076F0C2
:101B06002050030DF350CE0FD96EDA6ADF50000174
:101B1600776F2050030DF350CF0FD96EDA6ADF507E
:101B2600786F26C035F027C036F0000E386E0A0EE4
:101B3600376E51EC0BF03550300F0001796F26C02F
:101B460035F027C036F0000E386E0A0E376ECAEC36
:101B56000AF03550300F00017A6F000E7B6F000ED1
:101B66003D6E000E3C6E3C50710FD96EDA6ADF5046
:101B7600366E18500A0DF3503C2414EC0AF03C4A19
:101B86003D2A3DBEF0D73D5004E10A0E3C5CD8A08C
:101B9600EAD7184A192A0A0E18181910D8A41200DA
:101BA600000E196E000E186E120051C053F0546AE2
:101BB600556A5034533601E3548053505D6E5D5080
:101BC600D8A409D0000E4F6E000E506E000E516E56
:101BD600000E526E1200170E536E4FC054F050C0D6
:101BE60055F051C056F05328576E04D0D89056324F
:101BF60055325432572EFAD75450586E508EFF0E27
:101C06004F16FF0E5016000E51164F50596E50507B
:101C16005A6E51505B6E5C6A8E0E5D5E5DAE0DD087
:101C26005D50800A8F0FD8A0CDD7D8905C325B323A
:101C36005A3259325D3EF9D70DD0170E5D6407D082
:101C4600C1D7D89059365A365B365C365D065D503C
:101C5600D8A4F7D75850D8B408D05C1E5B1E5A1EBD
:101C6600596C000E5A225B225C2259C04FF05AC0B2
:101C760050F05BC051F05CC052F0120042C046F01A
:101C8600476A486A4134463601E3478046504D6EFE
:101C96004D50D8A407D0000E406E000E416E000EC7
:101CA600426E120045C046F0476A486A44344636DA
:101CB60001E3478046504E6E4E50D8A407D0000E22
:101CC600406E000E416E000E426E1200000E4A6E0D
:101CD600000E4B6E000E4C6E4E50890F4D5E42C08C
:101CE6004EF045504E1A800E4E16418EFF0E40168F
:101CF600FF0E4116000E4216448EFF0E4316FF0ECF
:101D06004416000E4516180E496ED8904A364B36C4
:101D16004C364350405C4450415845504258D8A038
:101D260007D04350405E4450415A4550425A4A807B
:101D3600D890403641364236492EE7D74AC035F06C
:101D46004BC036F04CC037F04DC038F04EC039F0BD
:101D560020EC0DF035C040F036C041F037C042F0FF
:101D66001200800E436E2A0E76EC09F0C00E436E0A
:101D7600200E76EC09F03250020DF350A70FD96E03
:101D8600DA6ADECF37F0DDCF38F0810E396EA3EC9C
:101D96000BF03250020DF350A90FD96EDA6ADECF7E
:101DA60037F0DDCF38F0C10E396EA3EC0BF0000E24
:101DB6004DEC0AF0456E050E4518D8A402D01E4A11
:101DC6001F2A060E4518D8A402D01C4A1D2A1F50E9
:101DD60014E1C80E1E5CD8B010D01E501F10D8B427
:101DE6000CD04528D8A409D0000E1F6E000E1E6E1A
:101DF600040E32601AD0322A18D01F5004E1C90EE0
:101E06001E5CD8A012D04528D8A40FD0000E236E91
:101E1600030E226E000E1F6E000E1E6E000E356E35
:101E2600010EC0EC09F032C034F01D5014E1C80EAA
:101E36001C5CD8B010D01C501D10D8B40CD045284E
:101E4600D8A409D0000E1D6E000E1C6E3250D8B4F8
:101E56001200320612001D5004E1C90E1C5CD8A007
:101E660012004528D8A41200000E1D6E000E1C6E2E
:101E7600000E236E000E226E000E356E010EC0ECB3
:101E860009F01200200E376E2F0E386E800E396E56
:101E9600A3EC0BF035EC0CF09E0E376E386AC00ED4
:101EA600396EA3EC0BF02050030DF350CE0F5E6E8F
:101EB6005EC037F0386ACA0E396EA3EC0BF0010E1D
:101EC6004DEC0AF0306E3004D8A40BD0215017E147
:101ED600060E205CD8B013D0204A212A77EC0DF0EC
:101EE6000ED0020E3018D8A40AD0215004E1020EFA
:101EF600205CD8A004D02006D8A02106EFD7030E78
:101F06003018D8A406D0000E216E070E206E77EC8E
:101F16000DF0CD0E436E240E446E410E456E040E3A
:101F26002FEC0AF035C03DF036C03EF0AEEC09F0BD
:101F36003DC040F03EC041F03FC042F041EC0EF0E3
:101F460040C04FF041C050F042C051F0D8EC0DF007
:101F56004FC026F050C027F0CE0E436E26C035F097
:101F660027C036F0000E386E0A0E376E51EC0BF0B5
:101F76003550300F76EC09F0CF0E436E26C035F0A3
:101F860027C036F0000E386E0A0E376ECAEC0AF01D
:101F96003550300F76EC09F0050E3018D8A4120033
:101FA600000E356E010EC0EC09F0000E236E010E18
:101FB600226E120020EE3AF0100EDE6AE806FDE20E
:101FC60024502510D8A4ABD0B90E366E2E0E376E1F
:101FD6007AEC0BF0000E4C6E000E4B6E4B500A0D59
:101FE600F350E9EC09F03A6E4B500A0DF328E9EC90
:101FF60009F03B6E3A0E3C6E4B500A0DF350020F41
:10200600E9EC09F03D6E4B500A0DF350030FE9EC75
:1020160009F03E6E3A0E3F6E4B500A0DF350040F18
:10202600E9EC09F0406E4B500A0DF350050FE9EC50
:1020360009F0416E200E426E200E436E4B500A0D83
:10204600F350060FE9EC09F0446E4B500A0DF350BD
:10205600070FE9EC09F0456E200E466E4B500A0D4F
:10206600F350080FE9EC09F0476E4B500A0DF35098
:10207600090FE9EC09F0486EC80E366E2E0E376E63
:102086007AEC0BF03A0E366E376A7AEC0BF04B4A66
:102096004C2A4CBEA3D74C5004E10A0E4B5CD8A088
:1020A6009DD7520E376E2F0E386E800E396EA3EC0A
:1020B6000BF0FF0E0001C827FF0EC923FF0ECA232F
:1020C600FF0ECB23C829F5E1C929F3E1CA29F1E1BD
:1020D600CB29D8A4EED7800E376E2F0E386EC00EE1
:1020E600396EA3EC0BF0FF0E0001C427FF0EC523CB
:1020F600FF0EC623FF0EC723C429F5E1C529F3E168
:10210600C629F1E1C729D8A4EED7000E356E010E17
:10211600C0EC09F0000E236E020E226E1200FE0EB7
:10212600376E2E0E386E800E396EA3EC0BF0FF0E56
:102136000001C027FF0EC123FF0EC223FF0EC323DB
:10214600C029F5E1C129F3E1C229F1E1C329D8A4E7
:10215600EED7000E356E010EC0EC09F0DBD7010E8E
:102166004DEC0AF04F6E040E2C604ED0110E376EF9
:102176002F0E386E800E396EA3EC0BF0050E4F183D
:10218600D8A40ED02C504A0FD96EDA6A310EDF6E03
:102196002C50C00F436E2A0E76EC09F02C2A11D073
:1021A600060E4F18D8A40DD02C504A0FD96EDA6AF5
:1021B600300EDF6E2C50C00F436E2A0E76EC09F0FF
:1021C600EDD7040E2C18D8A41DD1A00E016E860ED4
:1021D600026E010E036E000E046EFF0E0126FF0E48
:1021E6000222FF0E0322FF0E04220128F6E1022836
:1021F600F4E10328F2E10428D8A4EFD7000E356EE7
:10220600010EC0EC09F0FED0040E2C18D8A4FAD0AA
:102216002C504A0FD96EDA6ADF6A0F0E376E2F0E10
:10222600386E800E396EA3EC0BF0040E2B6046D090
:10223600050E4F18D8A40ED02B50450FD96EDA6A6A
:10224600310EDF6E2B50C00F436E2A0E76EC09F06E
:102256002B2A11D0060E4F18D8A40DD02B50450F9F
:10226600D96EDA6A300EDF6E2B50C00F436E2A0E1F
:1022760076EC09F0EDD7040E2B18D8A4C3D0A00E27
:10228600016E860E026E010E036E000E046EFF0EC8
:102296000126FF0E0222FF0E0322FF0E0422012852
:1022A600F6E10228F4E10328F2E10428D8A4EFD7E6
:1022B600000E356E010EC0EC09F0A4D0040E2B18EA
:1022C600D8A4A0D02B50450FD96EDA6ADF6A4A0E21
:1022D600356E450E366E8BEC0AF035503610D8A4A6
:1022E6005BD0CB0E376E2E0E386E800E396EA3EC99
:1022F6000BF0710E376E2F0E386EC00E396EA3ECD2
:102306000BF0000E506E50504A0FD96EDA6ADF504D
:10231600366E5050C80F14EC0AF0502A030E506463
:10232600F2D7000E296E000E286E295010E1040E19
:10233600285CD8B00CD02850B30FD96EDA6A285072
:10234600C80FE9EC09F0DF6E284A292AEED7000EFD
:102356000001B76F000E016E350E026E0C0E036E95
:10236600000E046EFF0E0126FF0E0222FF0E032250
:10237600FF0E04220128F6E10228F4E10328F2E127
:102386000428D8A4EFD7000E356E010EC0EC09F074
:10239600000E236E000E35D0D70E376E2F0E386E18
:1023A600800E396EA3EC0BF0F70E376E2F0E386EDB
:1023B600C00E396EA3EC0BF0000E2C6E000E2B6EC9
:1023C600000E016E350E026E0C0E036E000E046ECC
:1023D600FF0E0126FF0E0222FF0E0322FF0E04222D
:1023E6000128F6E10228F4E10328F2E10428D8A442
:1023F600EFD7000E356E010EC0EC09F0000E236E0D
:10240600020E226E000E326E1200000E4DEC0AF025
:10241600456E45500C6E0D6A24502510D8A4D6D0B2
:102426003150110D000EF324D96E010EF420DA6E30
:1024360031500A0DF350E9EC09F0DF6E3150110D01
:10244600010EF324D96E010EF420DA6E31500A0D16
:10245600F328E9EC09F0DF6E3150110D020EF3247A
:10246600D96E010EF420DA6E3A0EDF6E3150110D80
:10247600030EF324D96E010EF420DA6E31500A0DE4
:10248600F350020FE9EC09F0DF6E3150110D040E26
:10249600F324D96E010EF420DA6E31500A0DF35092
:1024A600030FE9EC09F0DF6E3150110D050EF32430
:1024B600D96E010EF420DA6E3A0EDF6E3150110D30
:1024C600060EF324D96E010EF420DA6E31500A0D91
:1024D600F350040FE9EC09F0DF6E3150110D070ED1
:1024E600F324D96E010EF420DA6E31500A0DF35042
:1024F600050FE9EC09F0DF6E3150110D080EF324DB
:10250600D96E010EF420DA6E200EDF6E3150110DF9
:10251600090EF324D96E010EF420DA6E31500A0D3D
:10252600F350060FE9EC09F0DF6E3150110D0A0E7B
:10253600F324D96E010EF420DA6E31500A0DF350F1
:10254600070FE9EC09F0DF6E3150110D0B0EF32485
:10255600D96E010EF420DA6E200EDF6E3150110DA9
:102566000C0EF324D96E010EF420DA6E31500A0DEA
:10257600F350080FE9EC09F0DF6E3150110D0D0E26
:10258600F324D96E010EF420DA6E31500A0DF350A1
:10259600090FE9EC09F0DF6E620E376E2F0E386E0A
:1025A600800E396EA3EC0BF0C00E436E3150300F27
:1025B60076EC09F03150110D000EF324376E010E42
:1025C600F420386EC20E396EA3EC0BF024042510ED
:1025D600D8A42BD0FE0E376E2E0E386E800E396EB6
:1025E600A3EC0BF0A90E376E2E0E386EC00E396EA8
:1025F600A3EC0BF0FF0E0001BC27FF0EBD23FF0E60
:10260600BE23FF0EBF23BC29F5E1BD29F3E1BE2998
:10261600F1E1BF29D8A4EED7000E356E010EC0EC4D
:1026260009F0000E236E020E226E050E0C180D1018
:10263600D8A402D0104A112A060E0C180D10D8A4E0
:1026460010D00E4A0F2A0F5004E1C90E0E5CD8A016
:1026560008D0000E236E020E226E000E0F6E000EC4
:102666000E6E115015E1C80E105CD8B011D0105086
:102676001110D8B40DD00C280D10D8A409D0000E16
:10268600116E000E106E090E316010D0312A0ED078
:10269600115004E1C90E105CD8A008D00C280D100A
:1026A600D8A404D0000E116E000E106E0F5013E168
:1026B600C80E0E5CD8B00FD00E500F10D8B40BD089
:1026C6000C280D10D8A407D0000E0F6E000E0E6E4B
:1026D6003150D8A431060F5004E1C90E0E5CD8A0C3
:1026E60012000C280D10D8A41200000E356E010E33
:1026F600C0EC09F0000E236E020E226E000E0F6E65
:10270600000E0E6E1200000E5C6E000E5B6E000E6A
:10271600566E030E556E000E4C6E000E4B6EF4D0C8
:10272600110E376E2F0E386E800E396EA3EC0BF03D
:10273600010E4DEC0AF0306E4B50456E4C50466E15
:102746004B4A4C2A46BE06D0980E455C3A0E465871
:10275600D8B007D05B50C00F436E5F0E76EC09F021
:1027660006D05B50C00F436E200E76EC09F0050EC6
:102776003018D8A40FD05B50840FD96EDA6A310EA8
:10278600DF6E5B50C00F436E2A0E76EC09F05B4A93
:102796005C2A11D0060E3018D8A40DD05B50840FD9
:1027A600D96EDA6A300EDF6E5B50C00F436E2A0EAA
:1027B60076EC09F0ECD7040E5B185C10D8A4A4D014
:1027C6005B50840FD96EDA6ADF6A000E296E000E3E
:1027D600286E295010E1040E285CD8B00CD0285081
:1027E600B30FD96EDA6A2850C80FE9EC09F0DF6E2C
:1027F600284A292AEED7000E586E000E576E5750FB
:10280600B30FD96EDA6A5750840FE16EE26ADE5072
:10281600E618D8A403D01A4A1B2A04D0000E1B6E51
:10282600000E1A6E574A582A58BEE9D7585004E186
:10283600040E575CD8A0E3D71BBE2DD01B5004E175
:10284600040E1A5CD8A027D0E40E376E2F0E386E11
:10285600C00E396EA3EC0BF0400E476E420E486E6A
:102866000F0E496E000E4A6E4706000E485A495A28
:102876004A5A4728F9E14828F7E14928F5E14A2864
:10288600D8A4F2D7000E356E010EC0EC09F0000E8A
:10289600236E020E0ED0000E5C6E000E5B6E5506A9
:1028A600D8A0560655505610D8A405D0000E236E53
:1028B6000A0E226E2DD0C00E436E5550300F76ECA8
:1028C60009F08F0E376E2F0E386EC10E396EA3ECDF
:1028D6000BF0400E4D6E420E4E6E0F0E4F6E000EFA
:1028E600506E4D06000E4E5A4F5A505A4D504E10CD
:1028F6004F105010D8A4F5D7A80E376E2E0E386E8E
:10290600C00E396EA3EC0BF055505610D8A408D75C
:102916000A0E22182310D8A41200000E356E010EDE
:10292600C0EC09F0910E376E2E0E386E800E396EA1
:10293600A3EC0BF0000E5A6E780E596ECA0E436E5B
:1029460059C03DF05AC03EF0000E406E0A0E3F6E72
:102956006AEC0CF03D50300F76EC09F0C90E436E70
:10296600000E386E0A0E376E59C035F05AC036F072
:10297600DEEC0CF035C03DF036C03EF0000E406E89
:102986000A0E3F6E6AEC0CF03D50300F76EC09F003
:10299600C80E436E000E386E640E376E59C035F0A1
:1029A6005AC036F0DEEC0CF035C03DF036C03EF0D5
:1029B600000E406E0A0E3F6E6AEC0CF03D50300F72
:1029C60076EC09F0EF0E376E2F0E386EC00E396EAC
:1029D600A3EC0BF0000E516E000E526E000E536EFD
:1029E600000E546E010E5126000E5222532254221E
:1029F600545008E1400E515C0D0E5258030E5358C8
:102A0600D8A0F0D7AC0E376E2E0E386EC00E396ECB
:102A1600A3EC0BF05906D8A05A065ABE12008ED760
:102A2600000E4C6E000E4D6E000E4A6E000E496E84
:102A36009E0E4F6E000E4DEC0AF04E6E9E0E376ED9
:102A46002F0E386E800E396EA3EC0BF09E0E376E8D
:102A5600386AC00E396EA3EC0BF080D04950456E33
:102A66004A50466E494A4A2A46BE06D0980E455CEA
:102A76003A0E4658D8B00BD0C00E436E5F0E76ECB9
:102A860009F0C10E436E5F0E76EC09F079D0C00EE8
:102A9600436E200E76EC09F0C10E436E200E76ECE6
:102AA60009F06ED005C045F006C046F007C047F0F5
:102AB60008C048F0052A000E06220722082248BE52
:102AC60009D04850471011E1980E455C3A0E465819
:102AD600D8B00BD0C30E436E5F0E76EC09F0C40E71
:102AE600436E5F0E76EC09F04BD0C30E436E200E9C
:102AF60076EC09F0C40E436E200E76EC09F040D059
:102B060005C045F006C046F007C047F008C048F0CB
:102B1600052A000E06220722082248BE09D0485080
:102B2600471011E1980E455C3A0E4658D8B00BD0C6
:102B3600C60E436E5F0E76EC09F0C70E436E5F0E4F
:102B460076EC09F01DD0C60E436E200E76EC09F029
:102B5600C70E436E200E76EC09F012D016C045F073
:102B660017C046F04650000AD8A40AD04550000ABD
:102B7600D8B474D7010AD8B495D7030AD8B4C0D745
:102B8600060E4E18D8A402D0144A152A050E4E1861
:102B9600D8A402D0124A132A155020E1C80E145C9C
:102BA600D8B01CD014501510D8B418D04E28D8A4BC
:102BB60015D0000E156E000E146E164A172A16C092
:102BC60035F017C036F0000E386E030E376ECAECBD
:102BD6000AF035C016F036C017F011D0155004E1D2
:102BE600C90E145CD8A00BD04E28D8A408D0000E6D
:102BF600156E000E146E000E236E020E226E13501A
:102C060003E1C80E125CD8B0B4D012501310D8B479
:102C1600B0D04E28D8A4ADD0000E136E000E126EA2
:102C260016501710D8A436D04F50D96EDA6A010E56
:102C3600D926DF2A4F50D96EDA6A010ED926390E07
:102C4600DF640BD04F50D96EDA6A010ED926300EEA
:102C5600DF6E4F50D96EDA6ADF2A4F50D96EDA6AC4
:102C6600320EDE18D8A412004F50D96EDA6A010E61
:102C7600D926340EDE18D8A412004F50D96EDA6A5F
:102C8600300EDF6E4F50D96EDA6A010ED926300E3D
:102C9600DF6E120016041710D8A433D04F50D96E29
:102CA600DA6A040ED926DF2A4F50D96EDA6A040E84
:102CB600D926390EDF640DD04F50D96EDA6A040E6C
:102CC600D926300EDF6E4F50D96EDA6A030ED9263A
:102CD600DF2A4F50D96EDA6A030ED926360EDE1871
:102CE600D8A412004F50D96EDA6A030ED926300ED8
:102CF600DF6E4F50D96EDA6A040ED926300EDF6EBB
:102D06001200020E16181710D8A412004F50D96ED2
:102D1600DA6A070ED926DF2A4F50D96EDA6A070E0D
:102D2600D926390EDF640DD04F50D96EDA6A070EF8
:102D3600D926300EDF6E4F50D96EDA6A060ED926C6
:102D4600DF2A4F50D96EDA6A060ED926360EDE18FD
:102D5600D8A412004F50D96EDA6A060ED926300E64
:102D6600DF6E4F50D96EDA6A070ED926300EDF6E47
:102D76001200135004E1C90E125CD8A012004E28AE
:102D8600D8A41200135004E1C90E125CD8A0120098
:102D9600000E136E000E126E310E376E2F0E386E49
:102DA600800E396EA3EC0BF0A60E376E2E0E386E23
:102DB600C00E396EA3EC0BF04F50D96EDA6ADF50B5
:102DC600456E4538F00B4B6E4F50D96EDA6A010EE0
:102DD600D926DF50D00F4B104B6E4BC036F0020E8B
:102DE6008FEC09F04F50D96EDA6A030ED926DF5000
:102DF600456E4538F00B4C6E4F50D96EDA6A040EAC
:102E0600D926DF50D00F4C104C6E4CC036F0010E58
:102E16008FEC09F04F50D96EDA6A060ED926DF50CC
:102E2600456E4538F00B4D6E4F50D96EDA6A070E77
:102E3600D926DF50D00F4D104D6E4DC036F0000E26
:102E46008FEC09F0400E056E0D0E066E030E076E32
:102E5600000E086EFF0E0526FF0E0622FF0E072245
:102E6600FF0E08220528F6E10628F4E10728F2E11C
:102E76000828D8A4EFD7000E356E010EC0EC09F075
:102E8600000E236E000E226E120000596F7520612F
:102E9600726520426C6F636B6564202020202000E1
:102EA600202020202020202020202020202020201C
:102EB600202000444F574E4C4F41444544204C4F30
:102EC60047530A0D005345542050415353574F5210
:102ED600442020202000446F776E6C6F6164204C84
:102EE6006F6720202020004368616E67652050616F
:102EF6007373776F726420004C4F47535F4152459E
:102F06005F434C4541524544005245454E54455257
:102F16002050415353574F52440054494D452020A9
:102F26002020204556202052504D00534554205411
:102F3600494D45205355434345535300536574202B
:102F460054696D6520202020202020002020444F39
:102F5600574E4C4F4144494E472020004C6F672046
:102F660020202020202020202020005355434345A8
:102F7600535346554C20202020002020444F574EC6
:102F86004C4F4144454420200020417474656D70C7
:102F960074206C6566742000454E544552204E459B
:102FA600572054494D450056696577204C6F672078
:102FB6002020202000436C656172204C6F67202022
:102FC600202000434C454152494E47204C4F475321
:102FD600005345542050415353574F5244005355C4
:102FE600434345535346554C00776169742E2E2E44
:0B2FF600004641494C555245000001C7
:00000001FF
